:020000040800F2
:10000000180C00204501000831060008750300089F
:100010002D060008E3010008630D00080000000041
:100020000000000000000000000000006D09000852
:10003000E70100080000000055080008810A0008D8
:100040005F0100085F0100085F0100085F01000810
:100050005F0100085F010008E901000815020008BF
:100060005F0100085F0100085F0100085F010008F0
:100070005F0100085F0100085F0100085F010008E0
:100080005F0100085F0100085F0100085F010008D0
:100090005F0100085F0100085F0100085F010008C0
:1000A0005F0100085F0100085F0100085F010008B0
:1000B0005F0100085F0100085F0100085F010008A0
:1000C0005F0100085F0100085F0100085F01000890
:1000D0005F010008E50A00085F0100085F010008F1
:1000E0005F0100085F0100085F0100085F01000870
:1000F0005F0100085F0100085F0100085F01000860
:100100005F0100085F0100085F0100085F0100084F
:100110005F0100085F0100085F0100085F0100083F
:100120005F0100085F0100085F0100085F0100082F
:10013000DFF80CD000F018F800480047650E000802
:10014000180C00200648804706480047FEE7FEE7F7
:10015000FEE7FEE7FEE7FEE7FEE7FEE7FEE7FEE777
:10016000850A000831010008064C074D06E0E068EA
:1001700040F0010394E8070098471034AC42F6D3EE
:10018000FFF7DAFFFC0E00081C0F000870B58C1892
:1001900010F8015B15F0070301D110F8013B2A119B
:1001A00006D110F8012B03E010F8016B01F8016B88
:1001B0005B1EF9D12B0705D40023521E0DD401F884
:1001C000013BFAE710F8013BCB1A921C03E013F84D
:1001D000015B01F8015B521EF9D5A142D8D3002082
:1001E00070BD00BFFEE7704710B50A2000F004FEA6
:1001F0000121074800F0B1F828B900F0D1FD40F620
:10020000B83000F0F9FD012000F016F810BD000034
:100210000008014010B50A2000F0EEFD022105485B
:1002200000F09BF810B9042000F006FE022000F058
:1002300003F810BD00080140014908607047000044
:10024000140401402DE9F04102460025002600205B
:1002500000230024002791F803C00CF00F0591F84B
:1002600003C00CF0100CBCF1000F03D091F802C0D9
:100270004CEA050591F800C0BCF1000F31D01468BC
:1002800000202BE04FF0010C0CFA00F3B1F800C095
:100290000CEA03069E4220D183004FF00F0C0CFAAB
:1002A00003F7BC4305FA03FC4CEA040491F803C0CD
:1002B000BCF1280F06D14FF0010C0CFA00FCC2F87B
:1002C00014C00AE091F803C0BCF1480F05D14FF00B
:1002D000010C0CFA00FCC2F810C0401C0828D1D355
:1002E0001460B1F800C0BCF1FF0F34DD5468002089
:1002F0002EE000F1080C4FF0010808FA0CF3B1F8F9
:1003000000C00CEA03069E4221D183004FF00F0C7F
:100310000CFA03F7BC4305FA03FC4CEA040491F819
:1003200003C0BCF1280F05D100F1080C08FA0CF845
:10033000C2F8148091F803C0BCF1480F07D100F156
:10034000080C4FF0010808FA0CF8C2F81080401CA5
:100350000828CED35460BDE8F0810246002093689F
:100360000B400BB1012000E0002070474161704755
:100370000161704700BFFEE770B50246002400250A
:1003800000230020958A138B1B0445EA030626F000
:100390007F4404EA01068E4201D1012000E00020E2
:1003A00070BD21B1028842F00102028004E002889F
:1003B0004FF6FE731A4002807047000000B585B00A
:1003C0000121480500F048FA0121082000F054FA04
:1003D000C020ADF8000003208DF802001C208DF82D
:1003E000030069460F48FFF72DFF0020ADF8080015
:1003F0004BF6FF70ADF80A001020ADF80C0080013C
:10040000ADF80E000001ADF810000748019001A9F9
:10041000064800F043F801210448FFF7C2FF05B089
:1004200000BD0000000C0140801A0600005400408E
:1004300021B1028842F48072028004E002884FF603
:10044000FF631A400280704721B1028842F40072B3
:10045000028004E002884FF6FF531A400280704782
:100460000CB50246002000230193009300920B0F6D
:10047000019321F07F41019B1BB1009B143300933A
:1004800003E0090C009B18330093009B1B680B4092
:100490000BB1012000E000200CBD00002DE9F0436D
:1004A00085B004460D460026B1460427DFF8CC800F
:1004B000A6884FF6C0700640684600F0EDF9DDF8FA
:1004C00008802F48B8FBF0F01FFA80F946EA0906C9
:1004D000A68020884FF6FE7108402080002629491A
:1004E000286888420CD828684000B8FBF0F087B232
:1004F000042F00DA04273E4309F10100208427E09D
:10050000E8884BF6FF71884206D1286800EB40006E
:10051000B8FBF0F087B209E0286800EBC00101EBFE
:100520000010B8FBF0F087B247F48047C7F30B0028
:1005300008B947F0010747F4004006434FF49670AE
:1005400009FB00F04FF47A7190FBF1F0401C20841D
:10055000A683208840F00100208026884FF6F530E1
:100560000640A8886989084306432680A889298906
:100570000843208105B0BDE8F083000000127A0036
:1005800040420F00A086010012B141F0010102E0DB
:100590004FF6FE73194001827047018270470000D8
:1005A00070B504460D4600BF4FF400311C48FFF7FC
:1005B00057FF0028F8D101211948FFF739FF00BF84
:1005C00018491748FFF7D8FE0028F9D000227821F3
:1005D0001348FFF7D9FF00BF13491148FFF7CCFEBE
:1005E0000028F9D021460E48FFF7D7FF00BF0E497B
:1005F000891C0B48FFF7C0FE0028F8D029460848A0
:10060000FFF7CBFF00BF0849891C0548FFF7B4FE80
:100610000028F8D001210248FFF716FF70BD000046
:1006200000540040010003008200070000BFFEE705
:100630007047000070B5002100230F22C47804B376
:10064000154C246804F4E064C4F5E064210AC1F1A7
:100650000403CA40447804FA03F184781440214327
:1006600009010E4C0678A155047804F01F050124F9
:10067000AC4005786D11AD0005F1E025C5F80041ED
:1006800009E0047804F01F050124AC40044D06780D
:10069000761145F8264070BD0CED00E000E400E066
:1006A00080E100E002490143024A11607047000006
:1006B0000000FA050CED00E010B5002000F03BF85A
:1006C00010BD2DE9F05F06460F4690461C46DDF84A
:1006D00028A04FF0000BE11704EB5171C910A4EBF7
:1006E000C10131B92046E11704EB5171C1F3C705CF
:1006F00006E02046E11704EB5171C910491CCDB248
:100700003D4614E02946304600F090F8B1460AE034
:1007100059460BF1010B1AF8010000F02BFB09F10F
:10072000010000F0FF09C145F2DB681CC5B2A5421B
:10073000E8DBBDE8F09F70B50646002415E004F143
:10074000B001C8B200F00FFB002000F00CFB10203D
:1007500000F009FB002504E0304600F00BFB681CAC
:10076000C5B2802DF8DB601CC4B2082CE7DB70BD7D
:1007700010B54FF47A7000F03FFBFFF71FFEAE207C
:1007800000F0F1FA202000F0EEFA102000F0EBFA71
:10079000B02000F0E8FAC82000F0E5FA002000F0F0
:1007A000E2FA102000F0DFFA402000F0DCFA8120AD
:1007B00000F0D9FAFF2000F0D6FAA12000F0D3FA19
:1007C000A62000F0D0FAA82000F0CDFA3F2000F0DB
:1007D000CAFAA42000F0C7FAD32000F0C4FA00201F
:1007E00000F0C1FAD52000F0BEFAF02000F0BBFA0C
:1007F000D92000F0B8FA222000F0B5FADA2000F093
:10080000B2FA122000F0AFFADB2000F0ACFA2020A0
:1008100000F0A9FA8D2000F0A6FA142000F0A3FA47
:10082000AF2000F0A0FAFFF747FF10BD70B50446F7
:100830000D4605F1B001C8B200F095FA102141EA69
:10084000141000F090FA04F00F0141F0010000F0E4
:100850008AFA70BD7047000029B1064AD269024386
:10086000044BDA6104E0034AD2698243014BDA6146
:10087000704700000010024029B1064A9269024305
:10088000044B9A6104E0034A92698243014B9A61E6
:10089000704700000010024030B500210022002403
:1008A00000232D4D6D6805F00C0121B1042905D000
:1008B000082923D105E0294D056022E0274D056078
:1008C0001FE0254D6D6805F47012234D6D6805F429
:1008D0008034022505EB92421CB9214D5543056039
:1008E0000BE01D4D6D6805F400351DB11C4D5543E1
:1008F000056002E0194D5543056002E0174D0560A3
:1009000000BF00BF144D6D6805F0F0010909154DD9
:100910006B5C0568DD4045600F4D6D6805F4E06176
:10092000090A104D6B5C4568DD4085600A4D6D68B5
:1009300005F46051C90A0B4D6B5C4568DD40C5602C
:10094000054D6D6805F44041890B074D6B5CC5682A
:10095000B5FBF3F5056130BD0010024000127A00CE
:1009600000093D002100002031000020704710B533
:1009700000F002F810BD00000CB5002001900090BE
:100980003348006840F480303149086000BF304887
:10099000006800F4003000900198401C019000981D
:1009A00018B90198B0F5A06FF1D12948006800F49A
:1009B000003010B10120009001E00020009000986C
:1009C000012843D12348006840F010002149086005
:1009D0000846006820F0030008600846006840F000
:1009E000020008601A484068194948600846406893
:1009F00048600846406840F48060486008464068A7
:100A000020F47C1048600846406840F4E8104860D4
:100A10000846006840F08070086000BF0C4800681D
:100A200000F000700028F9D00948406820F0030069
:100A3000074948600846406840F00200486000BF2F
:100A40000348406800F00C000828F9D10CBD0000F4
:100A50000010024000200240042808D14FF0E0219D
:100A6000096941F004014FF0E022116107E04FF005
:100A7000E021096921F004014FF0E0221161704783
:100A80007047000010B51348006840F0010011499C
:100A9000086008464068104908400E49486008460A
:100AA00000680E4908400B4908600846006820F4B9
:100AB000802008600846406820F4FE0048604FF43B
:100AC0001F008860FFF753FF4FF000600449086083
:100AD00010BD0000001002400000FFF8FFFFF6FE0E
:100AE00008ED00E010B540F225510B4800F078F811
:100AF00088B1094800F030F9C4B2232C02D101209A
:100B00000649087006480749098844540548008882
:100B1000401C0449088010BD00380140200000201E
:100B2000750500201E00002010B586B00446012186
:100B300044F20400FFF7A0FE4FF40070ADF814007B
:100B400003208DF8160018208DF8170005A91C4801
:100B5000FFF778FB4FF48060ADF8140004208DF8A7
:100B6000170005A91648FFF76DFB25208DF800003A
:100B700003208DF801008DF8020001208DF803009C
:100B80006846FFF757FD01940020ADF80800ADF866
:100B90000A00ADF80C00ADF810000C20ADF80E0006
:100BA00001A9084800F06CF8012240F225510548DF
:100BB00000F040F80121034800F006F806B010BD2F
:100BC000000801400038014021B1828942F40052FE
:100BD000828104E082894DF6FF731A40828170475A
:100BE00070B50246002400230025002040F66A1656
:100BF000B14200D100BFC1F3421501F01F0301262D
:100C000006FA03F3012D02D19689334006E0022D46
:100C100002D1168A334001E0968A33400C12012635
:100C200006FA04F41688344013B10CB1012000E038
:100C3000002070BDF0B503460024002600250020EA
:100C400040F66A17B94200D100BF1846C1F34214FA
:100C500001F01F06012707FA06F5012C01D10C301F
:100C600004E0022C01D1103000E014301AB1076802
:100C70002F43076002E00768AF430760F0BD000044
:100C80002DE9F04786B005460E460024A24600BF77
:100C9000A1460027B08900B100BF2F462C8A4CF630
:100CA000FF700440F08804432C82AC894EF6F310A8
:100CB0000440B08831890843718908430443AC81FA
:100CC000AC8A4FF6FF400440B0890443AC8201A8CF
:100CD000FFF7E2FD1F48874202D1DDF810A001E0D6
:100CE000DDF80CA0A88900F4004040B10AEBCA006E
:100CF00000EB0A1031684900B0FBF1F807E00AEB9D
:100D0000CA0000EB0A1031688900B0FBF1F86420DA
:100D1000B8FBF0F004012009642101FB1089A889C7
:100D200000F4004040B1322000EBC900B0FBF1F00C
:100D300000F00700044308E0322000EB09106421B2
:100D4000B0FBF1F000F00F0004432C8106B0BDE8C9
:100D5000F08700000038014001468888C0F3080091
:100D6000704700BFFEE710B5044621460020FFF79C
:100D700017FC10BD10B5044621464020FFF710FCBB
:100D800010BD02E008C8121F08C1002AFAD170473E
:100D90007047002001E001C1121F002AFBD17047FB
:100DA00010B54FF400510248FFF7E0FA10BD000003
:100DB000000C014010B56FF00400FFF74DFE0A482B
:100DC00000680A49B0FBF1F009490870084600784C
:100DD00000EB4001C1EBC0104FF6FF7101EAC0000B
:100DE0000449088010BD00000000002000127A00B5
:100DF000140000201600002010B5044602E0012077
:100E000000F056F8201EA4F101018CB2F7D110BDFC
:100E100010B54FF480410248FFF7AAFA10BD000058
:100E2000000C014010B54FF480410248FFF79EFAD4
:100E300010BD0000000C014070B5044604EB8400B6
:100E40004004050C0BE0FFF7EDFF6420FFF7D4FF33
:100E5000FFF7DEFF6420FFF7CFFFA81E85B2002D4D
:100E6000F1DC70BD08B500BF4FF4A060FFF71AFCBD
:100E7000FFF7A0FFFFF77CFC4FF46120FFF754FE63
:100E80000FE00848007860B1074808235422002189
:100E900000900846FFF715FC00200249087003493E
:100EA0000880EEE720000020750500201E000020CD
:100EB0000146114A12884A434FF0E0235A6100224A
:100EC0009A611A46126942F001021A6100BF4FF09E
:100ED000E022106900F001021AB100F48032002A09
:100EE000F5D04FF0E022126922F001024FF0E0232A
:100EF0001A6100229A617047160000201C0F00083A
:100F000000000020180800008C0100084C110008A7
:100F10001808002000040000920D00081184A24A65
:100F20000400091101020304060708092919691DB3
:100F300015020406081CF09088012AFE053390F083
:100F40002B0F08012AFF1034888F602A04013E44C9
:100F5000A414140C5E1E0101414181011C4739019A
:100F60000121300E2010F82C262424A4342C20201B
:100F7000C010098080BF4040201C0326204040BF95
:100F800080300FA0A0A8E8BEA8A8A8A03CE024E854
:100F900028100E24272425FE24249040373C43F8B3
:100FA00015FC0404FC180A7E424A52FE524A427E54
:100FB0007F180F04040F88690929C90F29C9092955
:100FC000C82012FC180C12641008F714549414F47E
:100FD0000420120F300C047E011D13115599513F4E
:100FE000112BF808AB29B11B28187F180E601F8041
:100FF0008043442810284443808080280E02828247
:10100000422212FA062222424282BF111EFC4444AE
:101010004445041AFC0E0113031E58381C182424DE
:101020006891100A03050911FF118905C312E01226
:10103000F072F8073D4428FF11AA44700B83013871
:10104000448292927401831E7C44C7017D019905FC
:1010500062FF9A01028119E9013E69419949FA0149
:1010600001A12A4001212A6D01212A60017915017F
:10107000642ADB010915072ADA01212AD801212A6D
:10108000C0010915072A800101352A060109180740
:101090001CE66620076A86157A861C2A8601180ACD
:1010A00080808686068686C0C00C0E1C0606D03060
:1010B000764D2907013113601C12FE13010210093D
:1010C000C41820029E63B20E1DFF8181FFF24440CE
:1010D000300F12FF180923EAAABFAAEA033F0B0147
:1010E0002DBC808080080115240E0C082A010131D6
:1010F00049041D81808081021901B917061101017F
:10110000090C0E0A14C0012178081E21404050210C
:101110005E08012A4DFFFFC1C10409232D28168056
:10112000FCF3EFF3FC80FF80EEEEEEF5FBFF9CBEE0
:10113000B6B688FFF52901191F490139E35D0101A0
:0C114000FFFF0901FF01FF018500000016
:0400000508000145A9
:00000001FF
